:020000040800F2
:10000000200700209D010008511D00085517000819
:100010004D1D0008D9050008591E00080000000009
:10002000000000000000000000000000B11D0008FA
:10003000FD05000800000000811D0008E51D000806
:10004000B7010008B7010008B7010008B7010008B0
:10005000B7010008B7010008B7010008B7010008A0
:10006000B7010008B7010008B7010008B701000890
:10007000B7010008B7010008B7010008B701000880
:10008000B7010008B7010008B7010008B701000870
:10009000491E0008DD050008ED050008B70100084D
:1000A000B7010008B7010008B7010008B701000850
:1000B000B7010008B7010008B7010008B701000840
:1000C000B7010008B7010008B7010008B701000830
:1000D000B7010008B7010008B7010008B701000820
:1000E000B7010008B7010008B701000800F002F8E6
:1000F00000F045F80AA090E8000C82448344AAF17D
:100100000107DA4501D100F03AF8AFF2090EBAE87A
:100110000F0013F0010F18BFFB1A43F0010318473B
:10012000A81F0000C81F0000103A24BF78C878C17B
:10013000FAD8520724BF30C830C144BF04680C60ED
:10014000704700000023002400250026103A28BF35
:1001500078C1FBD8520728BF30C148BF0B60704739
:10016000642900F04780752900F04480782900F068
:100170007D80002070471FB51FBD10B510BD00F079
:10018000F8F91146FFF7F7FF01F0B8FE00F016FA94
:1001900003B4FFF7F2FF03BC00F0E0F90948804721
:1001A00009480047FEE7FEE7FEE7FEE7FEE7FEE759
:1001B000FEE7FEE7FEE7FEE704480549054A064B71
:1001C00070470000451E0008ED00000820010020D7
:1001D0002007002020030020200300200FB4044942
:1001E00010B503AA029800F0A7F910BC5DF814FB43
:1001F0009C0000202DE9F041064600241068752976
:10020000314616A510D0AFF30080002802DA404234
:1002100013A507E031688A0701D512A502E0490756
:1002200004D511A5012401E0AFF3008000210A22CA
:1002300006F1240709E0B0FBF2FCB0FBF2F302FB8D
:100240001C00303078541846491C0028F3D123464E
:100250002A463046BDE8F04100F0FCB8000000003E
:100260002D0000002B0000002000000070B50446A7
:100270000D4621461068AFF300802188090502D59C
:100280000F4A7A4402E00E4A7A440E32002104F109
:10029000240305E000F00F060009965D5E54491C3A
:1002A0000028F7D120780023000704D5702D02D054
:1002B00009B1022311322046BDE8704000F0CAB8EF
:1002C000A01D00002DE9F0474FF0000A89460446C2
:1002D000C0F820A02046E1688847002876D025286D
:1002E00006D0D4E901219047206A401C2062F1E742
:1002F000E168204600258847C4F81CA00646002770
:10030000C4F818A02A2E09D0304601F085FE38B373
:1003100004EB8708303EC8F8186019E059F8041B50
:10032000204604EB87029161E1688847012F064669
:1003300018D1E069002820DA25F020051DE0D8F862
:10034000180000EB800006EB40003038C8F81800B9
:100350002046E1688847064601F05EFE0028EED19F
:10036000012F0AD02E2E08D12046E16888477F1C35
:100370000646022F45F02005C4DBA069002803DAF9
:10038000404245F00105A061E80701D025F01005C5
:10039000B6B1A6F14100192802D8203645F400650F
:1003A0004A463146204625604D46FFF7D9FE58B1F2
:1003B000012806D0ED1D25F0070000F1080989E7A6
:1003C00004E005F1040985E730468AE7206ABDE8C4
:1003D000F087000010B5044603E001F07DFD401CED
:1003E00009D014F8010B05490028F6D1BDE81040EA
:1003F0000A2001F071BD4FF0FF3010BD9C000020BD
:100400004FF0000200B5134694469646203922BFAD
:10041000A0E80C50A0E80C50B1F12001BFF4F7AFF8
:10042000090728BFA0E80C5048BF0CC05DF804EBDA
:10043000890028BF40F8042B08BF704748BF20F848
:10044000022B11F0804F18BF00F8012B7047704746
:10045000704770472DE9F0470D469946924604468D
:1004600000F124080168880604D5E06921F0100134
:10047000216000E00120A84201DD471B00E00027C9
:10048000A1697A1902EB0900081AA0612078C00658
:1004900002D42046AFF30080002608E0D4E9012111
:1004A0001AF806009047206A401C761C20624E45D0
:1004B000F4DB2078C0060AD52046AFF3008006E0C2
:1004C000D4E9012130209047206A401C2062381E68
:1004D000A7F10107F4DC07E0D4E9012118F80500D1
:1004E0009047206A401C2062281EA5F10105F3DC1C
:1004F0002046AFF300802078000602D50220BDE838
:10050000F0870120FBE7000001694A1C02610878BE
:10051000704700B58FB0CDE9013100210591054943
:100520007944CDE9031011466846FFF7CBFE0FB0C2
:1005300000BD0000E5FFFFFF074B70B50D467B4493
:10054000FFF7E7FF0446284600F00EF810B14FF021
:10055000FF3070BD204670BD97190000014918207A
:10056000ABBEFEE726000200007B00F08000704773
:100570007047754600F02CF8AE46050069465346B4
:1005800020F00700854618B020B5FFF715FEBDE83E
:1005900020404FF000064FF000074FF000084FF0EA
:1005A000000BAC46ACE8C009ACE8C009ACE8C00937
:1005B000ACE8C00921F007018D46704710B504462C
:1005C000AFF300802046BDE81040FFF7E1BD00001A
:1005D0000048704710000020FEE7000080B540F2A0
:1005E000F400C2F2000000F085F980BD80B540F251
:1005F000F400C2F2000000F07DF980BD70470000F9
:10060000EFF3108072B600BFFEE70000F0B581B0D6
:1006100040F20405C2F200052878B8B142F26C0736
:100620000026C0F60007002407EBC60157F8360085
:10063000496801F003F9B0FA80F040092978B04028
:1006400001368E4244EA0004EED300E0002403A009
:100650002146FFF7C3FD204601B0F0BD4D6F647524
:100660006C65416464723D25750D0A0090F8202088
:10067000013A012A04D8006800F11402002004E0C5
:1006800000F1240201204FF4802113681943116006
:1006900070470000B0B5026890F82030013B012B94
:1006A00027D8D2F80002012340F00100C2F800026E
:1006B000D1F814E0CC690EF01F0003FA00F0D2F874
:1006C0001C326FEA000C8343012CC2F81C3216D096
:1006D00064BBD2F80C3203EA0C03C2F80C32CB68CC
:1006E0008C8844EA034302EBCE04C4F840320B4644
:1006F00014E0416A41F4802141620120B0BDD2F88A
:100700000C320343C2F80C320B688C8844EA034372
:1007100002EBCE04C4F8403201F10C038C681B8854
:1007200043EA044302EBCE04C4F84432D2F8043264
:100730008D6943EA0004D1F810E0096A002D08BF72
:1007400003EA0C04C2F80442D2F81432BEF1000FDE
:1007500043EA000408BF03EA0C040129C2F814426A
:1007600004D1D2F81C120843C2F81C02D2F80002CD
:1007700020F00100C2F800020020B0BD10B500F06A
:1007800029F8A0B1044640F2F000C2F2000001785E
:1007900041F00101017006A02146FFF71FFD042C66
:1007A00002D0022C18BF10BD05A0FFF713FE10BD2C
:1007B00043414E315F4552524F523D25750D0A005F
:1007C00043414E315F4552524F52203E2031323824
:1007D0000D000000406A704710B590F82040013CC1
:1007E000012C0CD8D0F800C079B1DCF81040A40777
:1007F0000FD100F1240101204FF4001270E000F14C
:10080000240101204FF480226AE0DCF80C40A407A8
:100810006AD0046804EB011CDCF8B0410CF5D87E0A
:1008200014F004049460DCF8B04119BFE40854608B
:10083000640D1460DEF80040002904F00204D46066
:10084000DCF8B44104F00F041461DCF8B441C4F3E3
:1008500007249461DCF8B4414FEA14445461DCF895
:10086000B8211A70026802EB0112D2F8B8214FEADF
:1008700012225A70026802EB0112D2F8B8214FEA34
:1008800012429A70026802EB0112D2F8B8214FEAC4
:100890001262DA70026802EB0112D2F8BC211A71FE
:1008A000026802EB0112D2F8BC214FEA12225A71FF
:1008B000026802EB0112D2F8BC214FEA12429A718F
:1008C000026802EB0112D2F8BC214FEA1262DA711F
:1008D000006814BF00F1100100F10C01002020227B
:1008E0000B681A430A6010BD00F1240101204FF487
:1008F0000012F5E72DE9F04F81B004460068466923
:10090000D0F804908768D0F80CB0D0F810A0D0F8D8
:100910001880F10703D1002530071CD423E0F90724
:1009200010D00121BA07816009D4780700F1AA80AC
:10093000380700F1B080204600F0EEFA02E02046D1
:1009400000F0ECFA0025F80500F18480F80300F1CE
:10095000AA80300707D51BF0100004D0206845F4AA
:1009600000751021C160700708D51BF0080005D084
:1009700020680821C160204600F0CCF9B00706D5F8
:100980002068C068800702D0204600F0D9F97006C0
:1009900007D51AF0100004D0206845F480651021B6
:1009A0000161B00608D51AF0080005D020680821BA
:1009B0000161204600F032FAF00606D52068006991
:1009C000800702D0204600F03FFAB00308D519F0A6
:1009D000100005D0206810214160204600F06CFA1C
:1009E000F00308D519F0080005D0206808214160FF
:1009F000204600F09DFA300440F18F805FEA497094
:100A000040F1888006F4807008EA102028435FEAED
:100A10008871014648BF41F00201B20558BF014646
:100A20005FEA48700D4648BF45F00405700558BFA1
:100A30000D4630056ED518F070006BD010380009E7
:100A4000052862D8DFE800F0035356595C5F45F093
:100A500008055AE020684FF48071BA0581600AD415
:100A6000780512D4380519D4204600F059FAF80355
:100A70007FF56FAF17E0204600F054FAF8037FF5DA
:100A800068AF10E04FF400655DE705F50055F80329
:100A90007FF55FAF07E04FF4805554E705F58045DB
:100AA000F8037FF556AF20684FF48031BA038160B8
:100AB0000AD478030FD4380313D4204600F034FA54
:100AC00030073FF548AF4EE7204600F02FFA3007D9
:100AD0003FF541AF47E705F5004530073FF53BAF30
:100AE00041E705F5803530073FF535AF3BE745F089
:100AF00010050AE045F0200507E045F0400504E058
:100B000045F0800501E045F480752068816921F099
:100B1000700181612068042141602DB1606A284321
:100B200060622046FFF72AFE01B0BDE8F08F0000AA
:100B3000B0B5C8B1044690F8200010B9204600F0C6
:100B400071F82068016841F00101016000F004FBC8
:100B5000054600BF20684168C90707D100F0FCFACC
:100B6000401B0B28F6D312E00120B0BD016821F034
:100B70000201016000F0F0FA054600BF20684168FC
:100B800089070DD500F0E8FA401B0B28F6D3606A00
:100B9000052140F400306062012084F82010B0BDCF
:100BA000217E0268012922F0800208BF80320260A3
:100BB000617E0268012922F0400208BF40320260D3
:100BC000A17E0268012922F0200208BF20320260C3
:100BD000E17E0268012922F0100218BF1032026083
:100BE000217F0268012922F0080208BF0832026052
:100BF000617F0268012922F0040208BF043202600A
:100C0000D4E901C2D4E9033561691A432A43114387
:100C1000ACF101021143C16100200121606284F83E
:100C20002010B0BDB0B586B0006846F20042C4F2F4
:100C30000002002190420591CDE90311029101D0FB
:100C400006B0B0BD41F21800C4F20200426840F69E
:100C5000004442F0007242604268C4F2010402F0B3
:100C600000720192019A026802AD42F0080202602D
:100C7000006800F00800019001984FF48070CDE901
:100C8000020104912046294600F068F94FF40070F3
:100C9000029002200390032005902046294600F090
:100CA0005DF90420C4F20100016849F6FF72CFF635
:100CB000FF02114041F0E06141F4804101601420E5
:100CC0000021002200F0BEFA142000F0B7FA15202F
:100CD0000021002200F0B6FA152000F0AFFA16202D
:100CE0000021002200F0AEFA162000F0A7FA14202E
:100CF0000021002200F0A6FA142000F09FFA16202E
:100D00000021002200F09EFA162000F097FA06B0AB
:100D1000B0BD000080B540F2F000C2F200000178E2
:100D200041F00101017002A0FFF758FA80BD00BF39
:100D300043414E5F4649464F305F46756C6C00003C
:100D40002DE9F04186B040F2700540F29404C2F201
:100D50000005C2F2000400212A462346FFF73CFDAD
:100D600010B106B0BDE8F081296840F28C0801F4AA
:100D7000FC62C2F200080420202A88F80000F0D1AA
:100D8000207800F007000128EBD1E0786278A378A2
:100D90002679009011A00196FFF720FA2968D4F86F
:100DA000012018A0FFF71AFAE078267921786278F6
:100DB000A3786579A779E479CDE9000642F2940039
:100DC000C0F60000CDE902570494FFF707FA0120AE
:100DD00088F8000006B0BDE8F08100BF4649464FE4
:100DE000305F69643D25752C74303D25752C743158
:100DF0003D25752C74323D25752C74333D25750DBC
:100E00000A0000004649464F305F69643D25752C55
:100E100074696D653D25750D0A00000080B540F2CE
:100E2000F000C2F20000017841F00101017002A05F
:100E3000FFF7D4F980BD00BF43414E5F4649464F9E
:100E4000315F46756C6C000070B586B040F270057D
:100E500040F29404C2F20005C2F2000401212A46C5
:100E60002346FFF7B9FC08B106B070BD286840F210
:100E70008C0600F4FC60C2F20006042120283170C8
:100E8000F2D1217801F007000128EDD1E0786278F5
:100E9000A378257994F805C094F806E0E4798DE804
:100EA000215042F29400C0F600000494FFF796F936
:100EB0000120307006B070BD70470000B0B5044628
:100EC00090F8200001281DD1022084F8200020681D
:100ED000016821F00101016000F03EF9054600BF04
:100EE00020684068C00713D000F036F9401B0B287B
:100EF000F6D3606A40F400306062052084F8200078
:100F00000120B0BD606A40F4002060620120B0BDE5
:100F100000206062B0BD0000704700007047000014
:100F200070470000704700007047000070470000E5
:100F300070470000B0B5044600F00EF9054640F2D7
:100F40000500C2F200000078611C18BF044400BF15
:100F500000F002F9401BA042FAD3B0BD2DE9F04FDA
:100F600082B00E68002E00F0F38041F20042C4F21D
:100F70000102042340F2004E904208BF03234FF6C3
:100F8000FF7CC4F2010E009300240123C1F2100C77
:100F90004FF0000A4FF0000940E0012504F00C0377
:100FA0000F279F402BEA070705FA03F33B4342F85C
:100FB00026304E68F203DEF8002054BF22EA080211
:100FC00042EA0802CEF80020DEF80420B30354BF42
:100FD00022EA080242EA0802CEF80420F302DEF810
:100FE000082054BF22EA080242EA0802B30240F293
:100FF0000C43CEF80820C4F201031A6854BF22EA59
:10100000080242EA08021A6001230E680AF1010A86
:1010100036FA0AF204F1040400F09A8003FA0AFB9B
:1010200016EA0B08F1D04A68624511DC122A51D841
:10103000DFE802F0340A42465050505050505050B1
:101040005050505050494D00D1F80C9042E000BF34
:101050004FF6FF75C1F22105AA420FDC0025C1F24F
:101060001105AA421AD00025C1F21205AA4215D0D4
:101070000025C1F22105AA4210D02BE00025C1F2C3
:101080002205AA420AD00025C1F23105AA4205D0A4
:101090000025C1F23205AA421CD100BF8A6842B1C4
:1010A000012A14BFC0F814B0C0F810B04FF00809FE
:1010B00010E04FF004090DE0CA6802F1080909E0E8
:1010C0004FF0000906E0CA6802F1040902E0CA68AC
:1010D00002F10C0922460546B8F5807F24BF203A6C
:1010E00004352E680F279740BE4309FA02F23243B7
:1010F0002A60CA79D2067FF588AF41F21803C4F29C
:1011000002031A684FEA9A0642F001021A601A684E
:1011100040F6000302F001020192019AAEF57E72E0
:1011200052F826B0C4F2010398420FD040F60043B3
:10113000C4F2010398423FF430AF41F20003C4F21D
:101140000103009D984208BF022527E7002525E7F7
:1011500002B0BDE8F08F000040F21C10C2F20000A7
:101160000068704740F2050040F21C11C2F2000016
:10117000C2F2000100780A6810440860704700005D
:1011800080B542F20000C4F20200016841F0100193
:101190000160032000F066F80F2000F005F800F071
:1011A0002BF8002080BD0000B0B540F20502C2F26D
:1011B000000240F200011278C2F200014FF47A738B
:1011C0000968B3FBF2F20446B1FBF2F1084600F005
:1011D000BDFA0F2C4FF001050CD858B94FF0FF3075
:1011E00021460022002500F02DF840F20800C2F24E
:1011F000000004602846B0BD82B041F21800C4F27D
:1012000002000168022241F001010160016801F061
:10121000010101910199416841F0805141604068AC
:1012200000F08050009000980420C4F20100016892
:1012300062F31A61016002B07047000080B500F0EF
:101240000DFE80BD70B514460D46064600F016FE34
:101250002946224600F07EFD0146304600F016FE8B
:1012600070BD000080B500F023FE80BD2DE9F04385
:1012700081B0002800F0898042F20008C4F2020820
:101280000446D8F800000D4600F0070088420CD252
:10129000D8F8000020F007002843C8F80000D8F86C
:1012A000000000F00700A8426FD1206841F2040955
:1012B0008107C4F2020917D5410705D5D9F80010F6
:1012C00041F4E061C9F80010010705D5D9F8001014
:1012D00041F46051C9F80010D9F80010A26821F05B
:1012E000F0011143C9F80010C00745D1D8F800003B
:1012F00000F00700A8420CD9D8F8000020F0070041
:101300002843C8F80000D8F8000000F00700A84201
:101310003BD12068410707D5D9F80010E26821F4D5
:10132000E0611143C9F80010000708D5D9F80000A2
:10133000216920F4605040EAC100C9F8000000F0C3
:101340004FF8D9F8001042F24E02C1F30311C0F673
:101350000002515C40F2000220FA01F140F2080064
:10136000C2F200000068C2F200021160FFF71CFF29
:10137000002001B0BDE8F0836068022809D0012890
:1013800029D159F8041C890307D4012001B0BDE814
:10139000F08359F8041C8901F7D5D9F8001021F021
:1013A00003010843C9F80000FFF7D6FE064641F2E4
:1013B000883700BFD9F80000616800F00C00B0EB7E
:1013C000810F93D0FFF7C8FE801BB842F2D90320EB
:1013D00001B0BDE8F08359F8041C8907D5D5DCE7D6
:1013E00041F2040CC4F2020CDCF8003003F00C00F3
:1013F000082841F20020C0F27A0018BF7047C3F3FA
:1014000083420AA18A5CD90305D440F60010C0F2D9
:101410003D0050437047DCF8001008A3C1F3404181
:10142000595C5043B0FBF1F0704700BF0203040564
:10143000060708090A0B0C0D0E0F10100102000020
:101440002DE9F04182B0002800F0C4800446007805
:1014500041F20006C007C4F2020643D0706800F0F3
:101460000C00042817D0706800F00C00082802D186
:101470007068C0030FD465682DB1B5F5A02F10D0EA
:10148000B5F5803F11D0306820F48030306030688E
:1014900020F480200CE03068800323D5606808BB0E
:1014A00098E0306840F480203060306840F480304C
:1014B0003060FFF751FE002D054610D030688003E4
:1014C00010D4FFF749FE401B6428F7D904E100BFA0
:1014D000FFF742FE401B64284FF0030077D83068C6
:1014E0008003F5D42078800718D5706810F00C0FB1
:1014F00007D0706800F00C00082826D17068C0037F
:1015000023D43068800702D52069012862D1306871
:10151000616920F0F80040EAC100306020780007DF
:101520003DD5A06938B30020C4F242200121C0F8A3
:101530008014FFF711FE0546706A80072DD4FFF76F
:101540000BFE401B0228F7D9C6E02069002840F2B4
:101550000000C4F2422000F0968001210160FFF7F4
:10156000FBFD054630688007D1D4FFF7F5FD401B31
:101570000228F7D9B0E00020C4F242200021C0F8D0
:101580008014FFF7E9FD0546706A800707D5FFF76D
:10159000E3FD401B0228F7D99EE000F0F3FB207822
:1015A00040071BD4E5698DB1706800F00C00082875
:1015B00047D1012D0ED07068216A00F480328A4232
:1015C00008D1616A00F47010884203D1002002B093
:1015D000BDE8F081012002B0BDE8F081F06910F0B3
:1015E000805808D1F06940F08050F061F06900F057
:1015F00080500190019847F20007C4F20007386854
:10160000C00510D4386840F480703860FFF7A4FD3E
:10161000054600BF3868C00505D4FFF79DFD401B97
:101620006428F7D958E0E5681DB1052D3CD0012D9F
:101630003ED0306A20F001003062306A20F00400B1
:1016400039E00027C4F2422700203866FFF784FD06
:10165000022D05460CD100BF3068800154D5FFF73C
:101660007BFD401B02284FF00300F5D9AFE700BF18
:1016700030688001AAD5FFF76FFD401B02284FF0AC
:101680000300F5D9A3E700210160FFF765FD0546DA
:10169000306880077FF542AFFFF75EFD401B0228F0
:1016A0004FF00300F4D992E7306A40F00400306252
:1016B000306A40F001003062FFF74EFD002D054614
:1016C00041F2883714D000BF306A800713D4FFF787
:1016D00043FD401BB842F7D9032002B0BDE8F081BA
:1016E000FFF73AFD401BB8424FF003003FF66FAFE3
:1016F000306A8007F4D4B8F1000F7FF453AFF0697B
:1017000020F08050F0614DE7206AB0F5803F05D1B0
:101710007168A26821F40031114371607168626AD6
:1017200021F4741110430843706001203866FFF7FC
:1017300013FD0446306880013FF548AFFFF70CFD0C
:10174000001B02284FF00300F4D940E780B500F0F9
:1017500031FB80BDFEE7000081B041F21C00C4F205
:101760000200016841F002010160006800F002001F
:101770000090009801B0704781B041F21801C4F2A6
:1017800002010A6802430A60096808400090009854
:1017900001B0704781B041F21800C4F20200016844
:1017A00041F004010160006800F00400009000981E
:1017B00001B070472DE9F047B1F801700C4697FA77
:1017C000A7F1B1FA81F537FA05F133D0804640F23E
:1017D00001194FF0011A03E0013537FA05F029D05D
:1017E00027FA05F0C007F7D0B5F108000AFA00F0B3
:1017F00040F08066606838BF09FA05F6082804D111
:1018000022694046314600F069F862684046314638
:1018100000F03CF8606840F008000928DCD1A268BC
:101820004046314600F068F8E2684046314600F034
:1018300041F8D1E70020BDE8F08700008068C1F3DF
:101840000F210840401AB0FA80F0400970470000AC
:1018500040F60C41C4F201010968C0F30F200140B9
:10186000081AB0FA80F0400970470000C1F30F2158
:1018700041617047C1F30F214161704740F610414B
:10188000C0F30F20C4F201010860704780B54FEA31
:10189000116E91FAA1F1B1FA81F15EF800C08900F0
:1018A0000F238B402CEA030302FA01F119434EF88F
:1018B000001080BD80B54FEA116E91FAA1F1B1FA26
:1018C00081F15EF800C0890004238B402CEA0303F9
:1018D00002FA01F119434EF8001080BDC3684FEAC7
:1018E000112C23EA11219CFAACF3B3FA83F39A404A
:1018F0001143C1607047000080B54FEA116E91FA44
:10190000A1F1B1FA81F15EF800C0890003238B4098
:101910002CEA030302FA01F119434EF8001080BDCE
:1019200040F20040C4F20000016821F08001016033
:101930007047000040F20840C4F20000016821F046
:101940008001016070470000416941F0010141617F
:1019500070470000012806D0042806D010280CBFCC
:101960000220062002E0002000E0012042F25E0199
:10197000C0F6000142F26502095C40F2184CC0F664
:101980000002C4F2000C105C51F80C3003228240BB
:1019900023EA0202012303FA00F0104341F80C008D
:1019A00070470000012806D0042806D010280CBF7C
:1019B0000220062002E0002000E0012042F25E0149
:1019C000C0F6000142F26502095C40F2184CC0F614
:1019D0000002C4F2000C105C51F80C30F02202FA44
:1019E00000F023EA000041F80C007047012806D0FF
:1019F000042806D010280CBF0220062002E0002098
:101A000000E0012040F2204105A3C4F20001185C6F
:101A10000A680A2303FA00F022EA0000086070470F
:101A200000020406080A0C00012806D0042806D08B
:101A300010280CBF0220062002E0002000E0012058
:101A400042F25E01C0F6000142F26502095C40F21A
:101A5000184CC0F60002C4F2000C105C51F80C30B7
:101A60000C2202FA00F023EA000041F80C00704753
:101A700070B50D4640F2FF7104460068C4F20001E3
:101A800042F600468C42C4F2010605DCB4F1804FF8
:101A90000AD040F2004203E0B44205D040F6000212
:101AA000C4F20002944203D16A6820F0700010432F
:101AB0008C4205DCB4F1804F0AD040F2004103E0D3
:101AC000B44205D040F60001C4F200018C4203D1BB
:101AD000E96820F4407008432060A968204600F0BF
:101AE0000FF82988204600F00DF8B44202D1286989
:101AF00000F00AF82046FFF727FF002070BD000025
:101B0000C16270478162704742F63041C4F2010100
:101B10000860704740F20440C4F20000016821F000
:101B2000700101607047000010B58AB040F2F40007
:101B300046F20041C2F20000C4F2000140F2001E71
:101B4000122200244FF440234FF4801CC0F2010EF7
:101B500080E816004FF48071C0E90343C0E905CE68
:101B60008183FEF7E5FF002818BFFEF749FDFEF769
:101B70004DFD0146022060F31F2140F29000C2F2A9
:101B8000000001601EA0FEF729FB0F20099040F223
:101B9000F400CDE90044CDE90244CDE904440694C3
:101BA0000124C2F200006946CDE90744FEF772FD48
:101BB000002818BFFEF724FD102005900020CDE975
:101BC0000000CDE90200CDE9060440F2F400C2F2C3
:101BD0000000694604940894FEF75CFD002818BFD5
:101BE000FEF70EFD40F2F404C2F200042046FFF7B7
:101BF00065F9204648F61261FEF738FD0AB010BDBF
:101C00004652414D455F49443D25780D0A0000008C
:101C10002DE9F04F85B0002620200496CDE902661C
:101C2000CDE90066FFF7A8FD04204FF0040AFFF796
:101C3000A3FD08200827FFF79FFD40F6000BC4F224
:101C4000010B4EF2ED180BF58065C0F20C482846EA
:101C50004146FFF70FFE40F20F09C0F20F49584608
:101C60004946FFF707FE41F61F70CDE900076F46B2
:101C70000124584639460494FFF79CFDCDE90084C1
:101C80004FF0020828463946CDE90286FFF792FD5B
:101C900009F1E110CDE9000A28463946FFF78AFD2F
:101CA00058463946CDE90094CDE90286FFF782FD1A
:101CB00005B0BDE8F08F0000B0B58AB00025CDE9D1
:101CC0000855CDE90655CDE90455CDE90255CDE9D4
:101CD0000055FFF741FDFFF75DFD4CF2C00040F2FB
:101CE000004400900420C4F20004019004F5823006
:101CF0006946FFF75FFD4FF6FF70CDE9070505A9BF
:101D00002046ADF814500695FFF7B2FEFFF708FE27
:101D1000FFF700FFFFF70EFE0120FFF71BFE01207B
:101D2000FFF782FE0120FFF73DFE0120FFF75EFE78
:101D30001020FFF70FFE1020FFF776FE1020FFF7B0
:101D400031FE1020FFF752FE0AB0B0BDFEE70000E2
:101D5000FEE7000000F0070080F00703042B28BF17
:101D600004234FF0FF3C03380CFA03F338BF002084
:101D7000994381400CFA00F022EA000008437047C2
:101D80007047000081B040F20000C2F2000000681D
:101D900044F6D351C1F26201A0FB0101480A009050
:101DA00000BF0098411E00280091F9D101B0704792
:101DB00070470000B0B501380024B4EB106F1CBFB1
:101DC0000120B0BD4EF21005CEF2000568604FF064
:101DD000FF300F2100F05AF80720AC602860204641
:101DE000B0BD000080B5FFF7BDF980BD70B590B003
:101DF00006AC20462821FEF703FB01200A901020A4
:101E00000B904FF4E010002502260F902046059518
:101E1000CDE90355CDE901550696CDE90D65FFF7EE
:101E20000FFB68B90F20CDE9010601A80121CDE91A
:101E300003550595FFF71AFA002804BF10B070BDCE
:101E4000FEF7DEFB7047000080B540F2F400C2F2FE
:101E50000000FEF74FFD80BDFEE70000002848BFF0
:101E6000704700F01F01012202FA01F14EF2001248
:101E70004009CEF2000242F8201070474EF60C5096
:101E8000CEF200000068C0F3022070474EF61453F3
:101E900000F00F02CEF2000309011A4400F1604382
:101EA000B0F1FF3FC8BF03F56442117070470000F6
:101EB0004EF60C51CEF200010A684FF6FF031A40AD
:101EC00060F30A2242F0806040F0FD7008607047C5
:101ED000D0F80100704700004EF6FC51CEF2000130
:101EE0000968C90158BF70474FF060410A68002A6D
:101EF000FCD04FF0604108707047000040F6004889
:101F000040F20409C4F20108C0F20449FFF738F9AD
:101F1000FFF76CFFFFF77CFEFFF706FEFFF7CCFE36
:101F200038A0FEF757FAA8F58064A9F103112046FE
:101F3000FFF79CFCA9F102112046FFF797FC204611
:101F40004946FFF793FC09F1041A20465146FFF772
:101F50008DFC404640F20111FFF788FC404642F2FA
:101F60002001FFF783FC404644F24001FFF77EFC6E
:101F7000404648F28001FFF779FC40465146FFF7A2
:101F800075FC4846FFF77AFC4FF4FA70FEF7D2FF73
:101F900040F28C0540F2940BC2F20005C2F2000B35
:101FA0001AA400265046FFF753FC28B1404651467C
:101FB000FFF75CFC03E000BF5046FFF75FFC4846BC
:101FC000FFF746FC20B140464946FFF74FFC02E0D0
:101FD0004846FFF753FC002707E000BF0520FEF747
:101FE000A9FF632F07F10107DCD228780128F5D17A
:101FF0005846FFF76DFF01462046FEF7EFF82E70BA
:10200000ECE700BF73746172740D000074696D6554
:102010003D25750D0A00000030380A2801D2012044
:102020007047002070473031323334353637383915
:102030004142434445464030580030313233343514
:102040003637383961626364656640307800000075
:102050000000000000000102030406070809000058
:10206000000004040400000800000008000801400B
:1020700001010000000801400202000000080140C8
:1020800004040000000801400808000000080140A6
:102090001010000030623D25752C31623D25752CF5
:1020A00032623D25752C33623D25752C34623D2509
:1020B000752C35623D25752C36623D25752C3762B1
:1020C0003D25750D0A000000E820000800000020F2
:1020D0001000000028010008F8200008100000206F
:1020E00010070000440100080024F400050100006E
:0820F0001000000000000000D8
:04000005080000ED02
:00000001FF
