:020000040800F2
:10000000400700209D010008791D000885170008A1
:10001000751D000831050008D91E00080000000009
:10002000000000000000000000000000D91D0008D2
:10003000CD05000800000000A91D0008651E00088D
:10004000B7010008B7010008B7010008B7010008B0
:10005000B7010008B7010008B7010008B7010008A0
:10006000B7010008B7010008B7010008B701000890
:10007000B7010008B7010008B7010008B701000880
:10008000B7010008B7010008B7010008B701000870
:10009000C91E00083505000845050008B70100081D
:1000A000B7010008B7010008B7010008B701000850
:1000B000B7010008B7010008B7010008B701000840
:1000C000B7010008B7010008B7010008B701000830
:1000D000B7010008B7010008B7010008B701000820
:1000E000B7010008B7010008B701000800F002F8E6
:1000F00000F045F80AA090E8000C82448344AAF17D
:100100000107DA4501D100F03AF8AFF2090EBAE87A
:100110000F0013F0010F18BFFB1A43F0010318473B
:10012000C41F0000E41F0000103A24BF78C878C143
:10013000FAD8520724BF30C830C144BF04680C60ED
:10014000704700000023002400250026103A28BF35
:1001500078C1FBD8520728BF30C148BF0B60704739
:10016000642900F07B80752900F07880782900F000
:10017000B180002070471FB51FBD10B510BD00F045
:100180009DF91146FFF7F7FF01F0F4FE00F0BBF90F
:1001900003B4FFF7F2FF03BC00F0C2F9094880473F
:1001A00009480047FEE7FEE7FEE7FEE7FEE7FEE759
:1001B000FEE7FEE7FEE7FEE704480549054A064B71
:1001C00070470000C51E0008ED0000084001002037
:1001D0004007002040030020400300200FB40449E2
:1001E00010B503AA029800F03BF910BC5DF814FBAF
:1001F000B40000202DE9F0410E46044600202062A4
:100200002046E168884730B3252805D0D4E901218C
:100210009047206A401CF2E7E168204600278847A3
:10022000050018D0A5F14100192802D820354FF457
:1002300000673246294620462760FFF791FF40B10C
:10024000012804D0F61D26F007060836D8E7361D2B
:10025000D6E72846DAE7206ABDE8F0812DE9F041CB
:100260000646002410687529314616A510D0AFF354
:100270000080002802DA404213A507E031688A07AF
:1002800001D512A502E0490704D511A5012401E01A
:10029000AFF3008000210A2206F1240709E0B0FB39
:1002A000F2FCB0FBF2F302FB1C003030785418462D
:1002B000491C0028F3D123462A463046BDE8F041C8
:1002C00000F074B8000000002D0000002B000000BA
:1002D0002000000070B504460D4621461068AFF3BB
:1002E00000802188090502D50F4A7A4402E00E4AAF
:1002F0007A440E32002104F1240305E000F00F06D9
:100300000009965D5E54491C0028F7D1207800232F
:10031000000704D5702D02D009B102231132204606
:10032000BDE8704000F042B8861D000010B50446DC
:1003300003E001F00DFE401C09D014F8010B054943
:100340000028F6D1BDE810400A2001F001BE4FF0B0
:10035000FF3010BDB40000204FF0000200B513467E
:1003600094469646203922BFA0E80C50A0E80C50D5
:10037000B1F12001BFF4F7AF090728BFA0E80C5086
:1003800048BF0CC05DF804EB890028BF40F8042B7F
:1003900008BF704748BF20F8022B11F0804F18BFEC
:1003A00000F8012B70477047704770472DE9F04700
:1003B0000D4699469246044600F1240801688806D5
:1003C00004D5E06921F01001216000E00120A8427D
:1003D00001DD471B00E00027A1697A1902EB090043
:1003E000081AA0612078C00602D42046AFF300802E
:1003F000002608E0D4E901211AF806009047206A97
:10040000401C761C20624E45F4DB2078C0060AD5DD
:100410002046AFF3008006E0D4E901213020904768
:10042000206A401C2062381EA7F10107F4DC07E0B7
:10043000D4E9012118F805009047206A401C206289
:10044000281EA5F10105F3DC2046AFF300802078DB
:10045000000602D50220BDE8F0870120FBE700007E
:10046000074B70B50D467B4400F011F80446284652
:1004700000F020F810B14FF0FF3070BD204670BD85
:10048000E71A000001694A1C02610878704700B54C
:100490008FB0CDE901310021059105497944CDE9BD
:1004A000031011466846FFF7A5FE0FB000BD00001F
:1004B000E5FFFFFF007B00F080007047754600F00D
:1004C0002BF8AE4605006946534620F007008546E6
:1004D00018B020B5FFF770FEBDE820404FF00006D1
:1004E0004FF000074FF000084FF0000BAC46ACE8AF
:1004F000C009ACE8C009ACE8C009ACE8C00921F00B
:1005000007018D46704710B50446AFF300802046C2
:10051000BDE81040FFF73CBE0048704710000020C7
:1005200001491820ABBEFEE726000200704700001C
:10053000FEE7000080B540F21410C2F2000000F0A7
:1005400027FA80BD80B540F21410C2F2000000F01E
:100550001FFA80BDB0B582B040F2141400204FF4F1
:100560008035C2F200040190204600F0FDF9013D03
:1005700001D00028F8D085B146F20840C4F200004E
:10058000016849010CD4016809010BD40068C0005E
:100590004FF0020007D402B0B0BD032002B0B0BDDE
:1005A000002000E00120019040F2141040F2980178
:1005B00040F20812C2F20000C2F20001C2F20002D0
:1005C00001AB00F04FF802B0B0BD00007047000072
:1005D000EFF3108072B600BFFEE70000F0B581B007
:1005E00040F20405C2F200052878B8B142F2BC0717
:1005F0000026C0F60007002407EBC60157F83600B6
:10060000496801F033F9B0FA80F040092978B04028
:1006100001368E4244EA0004EED300E0002403A039
:100620002146FFF7DBFD204601B0F0BD4D6F64753C
:100630006C65416464723D25750D0A0090F82020B8
:10064000013A012A04D8006800F11402002004E0F5
:1006500000F1240201204FF4802113681943116036
:100660007047000010B590F820E0D0F800C0AEF15F
:10067000010EBEF1010FDCF808E00DD81EF0E05FBE
:1006800010D0CEF3016EBEF1030F11D100F12401A1
:1006900001204FF4000233E000F1240101204FF467
:1006A00080222DE000F1240101204FF4001227E008
:1006B000012000FA0EF01860886818B14B6840EA13
:1006C000C30001E008684005D1E9033403430CEBA3
:1006D0000E10C0F88031C0F88441097D012905D190
:1006E00000F5C2710B6843F480730B605168C0F869
:1006F0008C11126800F5C071C0F888210020012219
:100700000B681A430A6010BDB0B5026890F820303B
:10071000013B012B27D8D2F80002012340F0010051
:10072000C2F80002D1F814E0CC690EF01F0003FA01
:1007300000F0D2F81C326FEA000C8343012CC2F89F
:100740001C3216D064BBD2F80C3203EA0C03C2F898
:100750000C32CB688C8844EA034302EBCE04C4F825
:1007600040320B4614E0416A41F48021416201208D
:10077000B0BDD2F80C320343C2F80C320B688C883F
:1007800044EA034302EBCE04C4F8403201F10C0307
:100790008C681B8843EA044302EBCE04C4F844325D
:1007A000D2F804328D6943EA0004D1F810E0096AF6
:1007B000002D08BF03EA0C04C2F80442D2F8143238
:1007C000BEF1000F43EA000408BF03EA0C0401294C
:1007D000C2F8144204D1D2F81C120843C2F81C0219
:1007E000D2F8000220F00100C2F800020020B0BDE3
:1007F00010B500F029F8A0B1044640F21010C2F282
:100800000000017841F00101017006A02146FFF7C8
:10081000E5FC042C02D0022C18BF10BD05A0FFF788
:1008200085FD10BD43414E315F4552524F523D252B
:10083000750D0A0043414E315F4552524F52203EE2
:10084000203132380D000000406A704710B590F832
:100850002040013C012C0CD8D0F800C079B1DCF864
:100860001040A4070FD100F1240101204FF4001221
:1008700070E000F1240101204FF480226AE0DCF8EE
:100880000C40A4076AD0046804EB011CDCF8B041FA
:100890000CF5D87E14F004049460DCF8B04119BF64
:1008A000E4085460640D1460DEF80040002904F090
:1008B0000204D460DCF8B44104F00F041461DCF8E5
:1008C000B441C4F307249461DCF8B4414FEA144402
:1008D0005461DCF8B8211A70026802EB0112D2F8F8
:1008E000B8214FEA12225A70026802EB0112D2F8C4
:1008F000B8214FEA12429A70026802EB0112D2F854
:10090000B8214FEA1262DA70026802EB0112D2F8E3
:10091000BC211A71026802EB0112D2F8BC214FEA25
:1009200012225A71026802EB0112D2F8BC214FEA7E
:1009300012429A71026802EB0112D2F8BC214FEA0E
:100940001262DA71006814BF00F1100100F10C01AD
:10095000002020220B681A430A6010BD00F1240118
:1009600001204FF40012F5E790F820100139012919
:1009700084BF002070470068816882688068C1F386
:100980008061C2F3C0621144C0F300700844704734
:100990002DE9F04F81B0044600684669D0F8049014
:1009A0008768D0F80CB0D0F810A0D0F81880F10704
:1009B00003D1002530071CD423E0F90710D0012112
:1009C000BA07816009D4780700F1AA80380700F1DE
:1009D000B080204600F0B8FA02E0204600F0B6FAF7
:1009E0000025F80500F18480F80300F1AA803007A3
:1009F00007D51BF0100004D0206845F400751021C5
:100A0000C160700708D51BF0080005D020680821D8
:100A1000C160204600F0CCF9B00706D52068C06858
:100A2000800702D0204600F0D9F9700607D51AF0E9
:100A3000100004D0206845F4806510210161B006E3
:100A400008D51AF0080005D0206808210161204669
:100A500000F0FCF9F00606D520680069800702D096
:100A6000204600F009FAB00308D519F0100005D0AF
:100A7000206810214160204600F036FAF00308D5C6
:100A800019F0080005D0206808214160204600F0D8
:100A900067FA300440F18F805FEA497040F1888046
:100AA00006F4807008EA102028435FEA8871014646
:100AB00048BF41F00201B20558BF01465FEA4870E5
:100AC0000D4648BF45F00405700558BF0D4630057A
:100AD0006ED518F070006BD010380009052862D868
:100AE000DFE800F0035356595C5F45F008055AE013
:100AF00020684FF48071BA0581600AD4780512D459
:100B0000380519D4204600F023FAF8037FF56FAFBB
:100B100017E0204600F01EFAF8037FF568AF10E0FA
:100B20004FF400655DE705F50055F8037FF55FAF0D
:100B300007E04FF4805554E705F58045F8037FF54D
:100B400056AF20684FF48031BA0381600AD478032D
:100B50000FD4380313D4204600F0FEF930073FF5D8
:100B600048AF4EE7204600F0F9F930073FF541AFB6
:100B700047E705F5004530073FF53BAF41E705F591
:100B8000803530073FF535AF3BE745F010050AE00B
:100B900045F0200507E045F0400504E045F08005FC
:100BA00001E045F480752068816921F07001816160
:100BB0002068042141602DB1606A284360622046AC
:100BC000FFF716FE01B0BDE8F08F0000B0B5C8B168
:100BD000044690F8200010B9204600F071F8206813
:100BE000016841F00101016000F0CEFA054600BF46
:100BF00020684168C90707D100F0C6FA401B0B28DE
:100C0000F6D312E00120B0BD016821F002010160BD
:100C100000F0BAFA054600BF2068416889070DD583
:100C200000F0B2FA401B0B28F6D3606A052140F4AD
:100C300000306062012084F82010B0BD217E02687F
:100C4000012922F0800208BF80320260617E0268C2
:100C5000012922F0400208BF40320260A17E0268F2
:100C6000012922F0200208BF20320260E17E0268E2
:100C7000012922F0100218BF10320260217F0268A1
:100C8000012922F0080208BF08320260617F026871
:100C9000012922F0040208BF04320260D4E901C233
:100CA000D4E9033561691A432A431143ACF10102C7
:100CB0001143C16100200121606284F82010B0BDA1
:100CC000B0B586B0006846F20042C4F200020021CE
:100CD00090420591CDE90311029101D006B0B0BD5B
:100CE00041F21800C4F20200426840F6004442F0AB
:100CF000007242604268C4F2010402F00072019284
:100D0000019A026802AD42F008020260006800F039
:100D10000800019001984FF48070CDE90201049120
:100D20002046294600F032F94FF40070029002206C
:100D30000390032005902046294600F027F904205F
:100D4000C4F20100016849F6FF72CFF6FF021140BC
:100D500041F0E06141F48041016014200021002253
:100D600000F088FA142000F081FA152000210022FA
:100D700000F080FA152000F079FA162000210022F8
:100D800000F078FA162000F071FA142000210022F9
:100D900000F070FA142000F069FA162000210022F9
:100DA00000F068FA162000F061FA06B0B0BD00004D
:100DB00080B540F21010C2F20000017841F001014C
:100DC000017002A0FFF70AFA80BD00BF43414E5FE9
:100DD0004649464F305F46756C6C0000B0B582B036
:100DE00040F2700540F27C04C2F20005C2F2000439
:100DF0006B1C00212246FFF729FD08B102B0B0BDEF
:100E00000320287040F2B000C2F2000021686A7826
:100E10000478AB7804A0002C18BF40F2032400949F
:100E2000FFF7DCF902B0B0BD4649464F305F696458
:100E30003D25782C6D73673D25785F25782C6D797D
:100E40005F69643D25780D0A0000000080B540F21E
:100E50001010C2F20000017841F00101017002A0FF
:100E6000FFF7BCF980BD00BF43414E5F4649464F86
:100E7000315F46756C6C0000B0B582B040F2700511
:100E800040F27C04C2F20005C2F200046B1C012196
:100E90002246FFF7DBFC08B102B0B0BD032028708A
:100EA00040F2B000C2F2000021686A780478AB78A2
:100EB00004A0002C18BF40F203240094FFF78EF921
:100EC00002B0B0BD4649464F315F69643D25782C7C
:100ED0006D73673D25785F25782C6D795F69643D7A
:100EE00025780D0A0000000070470000B0B50446E8
:100EF00090F8200001281DD1022084F820002068ED
:100F0000016821F00101016000F03EF9054600BFD3
:100F100020684068C00713D000F036F9401B0B284A
:100F2000F6D3606A40F400306062052084F8200047
:100F30000120B0BD606A40F4002060620120B0BDB5
:100F400000206062B0BD00007047000070470000E4
:100F500070470000704700007047000070470000B5
:100F600070470000B0B5044600F00EF9054640F2A7
:100F70000500C2F200000078611C18BF044400BFE5
:100F800000F002F9401BA042FAD3B0BD2DE9F04FAA
:100F900082B00E68002E00F0F38041F20042C4F2ED
:100FA0000102042340F2004E904208BF03234FF693
:100FB000FF7CC4F2010E009300240123C1F2100C47
:100FC0004FF0000A4FF0000940E0012504F00C0347
:100FD0000F279F402BEA070705FA03F33B4342F82C
:100FE00026304E68F203DEF8002054BF22EA0802E1
:100FF00042EA0802CEF80020DEF80420B30354BF12
:1010000022EA080242EA0802CEF80420F302DEF8DF
:10101000082054BF22EA080242EA0802B30240F262
:101020000C43CEF80820C4F201031A6854BF22EA28
:10103000080242EA08021A6001230E680AF1010A56
:1010400036FA0AF204F1040400F09A8003FA0AFB6B
:1010500016EA0B08F1D04A68624511DC122A51D811
:10106000DFE802F0340A4246505050505050505081
:101070005050505050494D00D1F80C9042E000BF04
:101080004FF6FF75C1F22105AA420FDC0025C1F21F
:101090001105AA421AD00025C1F21205AA4215D0A4
:1010A0000025C1F22105AA4210D02BE00025C1F293
:1010B0002205AA420AD00025C1F23105AA4205D074
:1010C0000025C1F23205AA421CD100BF8A6842B194
:1010D000012A14BFC0F814B0C0F810B04FF00809CE
:1010E00010E04FF004090DE0CA6802F1080909E0B8
:1010F0004FF0000906E0CA6802F1040902E0CA687C
:1011000002F10C0922460546B8F5807F24BF203A3B
:1011100004352E680F279740BE4309FA02F2324386
:101120002A60CA79D2067FF588AF41F21803C4F26B
:1011300002031A684FEA9A0642F001021A601A681E
:1011400040F6000302F001020192019AAEF57E72B0
:1011500052F826B0C4F2010398420FD040F6004383
:10116000C4F2010398423FF430AF41F20003C4F2ED
:101170000103009D984208BF022527E7002525E7C7
:1011800002B0BDE8F08F000040F23C10C2F2000057
:101190000068704740F2050040F23C11C2F20000C6
:1011A000C2F2000100780A6810440860704700002D
:1011B00080B542F20000C4F20200016841F0100163
:1011C0000160032000F066F80F2000F005F800F041
:1011D0002BF8002080BD0000B0B540F20502C2F23D
:1011E000000240F200011278C2F200014FF47A735B
:1011F0000968B3FBF2F20446B1FBF2F1084600F0D5
:10120000BDFA0F2C4FF001050CD858B94FF0FF3044
:1012100021460022002500F02DF840F20800C2F21D
:10122000000004602846B0BD82B041F21800C4F24C
:1012300002000168022241F001010160016801F031
:10124000010101910199416841F08051416040687C
:1012500000F08050009000980420C4F20100016862
:1012600062F31A61016002B07047000080B500F0BF
:1012700035FE80BD70B514460D46064600F03EFEB4
:101280002946224600F07AFD0146304600F03EFE37
:1012900070BD000080B500F04BFE80BD2DE9F0432D
:1012A00081B0002800F0898042F20008C4F20208F0
:1012B0000446D8F800000D4600F0070088420CD222
:1012C000D8F8000020F007002843C8F80000D8F83C
:1012D000000000F00700A8426FD1206841F2040925
:1012E0008107C4F2020917D5410705D5D9F80010C6
:1012F00041F4E061C9F80010010705D5D9F80010E4
:1013000041F46051C9F80010D9F80010A26821F02A
:10131000F0011143C9F80010C00745D1D8F800000A
:1013200000F00700A8420CD9D8F8000020F0070010
:101330002843C8F80000D8F8000000F00700A842D1
:101340003BD12068410707D5D9F80010E26821F4A5
:10135000E0611143C9F80010000708D5D9F8000072
:10136000216920F4605040EAC100C9F8000000F093
:101370004FF8D9F8001042F29C02C1F30311C0F6F5
:101380000002515C40F2000220FA01F140F2080034
:10139000C2F200000068C2F200021160FFF71CFFF9
:1013A000002001B0BDE8F0836068022809D0012860
:1013B00029D159F8041C890307D4012001B0BDE8E4
:1013C000F08359F8041C8901F7D5D9F8001021F0F1
:1013D00003010843C9F80000FFF7D6FE064641F2B4
:1013E000883700BFD9F80000616800F00C00B0EB4E
:1013F000810F93D0FFF7C8FE801BB842F2D90320BB
:1014000001B0BDE8F08359F8041C8907D5D5DCE7A5
:1014100041F2040CC4F2020CDCF8003003F00C00C2
:10142000082841F20020C0F27A0018BF7047C3F3C9
:1014300083420AA18A5CD90305D440F60010C0F2A9
:101440003D0050437047DCF8001008A3C1F3404151
:10145000595C5043B0FBF1F0704700BF0203040534
:10146000060708090A0B0C0D0E0F101001020000F0
:101470002DE9F04182B0002800F0C48004460078D5
:1014800041F20006C007C4F2020643D0706800F0C3
:101490000C00042817D0706800F00C00082802D156
:1014A0007068C0030FD465682DB1B5F5A02F10D0BA
:1014B000B5F5803F11D0306820F48030306030685E
:1014C00020F480200CE03068800323D5606808BBDE
:1014D00098E0306840F480203060306840F480301C
:1014E0003060FFF751FE002D054610D030688003B4
:1014F00010D4FFF749FE401B6428F7D904E100BF70
:10150000FFF742FE401B64284FF0030077D8306895
:101510008003F5D42078800718D5706810F00C0F80
:1015200007D0706800F00C00082826D17068C0034E
:1015300023D43068800702D52069012862D1306841
:10154000616920F0F80040EAC100306020780007AF
:101550003DD5A06938B30020C4F242200121C0F873
:101560008014FFF711FE0546706A80072DD4FFF73F
:101570000BFE401B0228F7D9C6E02069002840F284
:101580000000C4F2422000F0968001210160FFF7C4
:10159000FBFD054630688007D1D4FFF7F5FD401B01
:1015A0000228F7D9B0E00020C4F242200021C0F8A0
:1015B0008014FFF7E9FD0546706A800707D5FFF73D
:1015C000E3FD401B0228F7D99EE000F0EFFB2078F6
:1015D00040071BD4E5698DB1706800F00C00082845
:1015E00047D1012D0ED07068216A00F480328A4202
:1015F00008D1616A00F47010884203D1002002B063
:10160000BDE8F081012002B0BDE8F081F06910F082
:10161000805808D1F06940F08050F061F06900F026
:1016200080500190019847F20007C4F20007386823
:10163000C00510D4386840F480703860FFF7A4FD0E
:10164000054600BF3868C00505D4FFF79DFD401B67
:101650006428F7D958E0E5681DB1052D3CD0012D6F
:101660003ED0306A20F001003062306A20F0040081
:1016700039E00027C4F2422700203866FFF784FDD6
:10168000022D05460CD100BF3068800154D5FFF70C
:101690007BFD401B02284FF00300F5D9AFE700BFE8
:1016A00030688001AAD5FFF76FFD401B02284FF07C
:1016B0000300F5D9A3E700210160FFF765FD0546AA
:1016C000306880077FF542AFFFF75EFD401B0228C0
:1016D0004FF00300F4D992E7306A40F00400306222
:1016E000306A40F001003062FFF74EFD002D0546E4
:1016F00041F2883714D000BF306A800713D4FFF757
:1017000043FD401BB842F7D9032002B0BDE8F08189
:10171000FFF73AFD401BB8424FF003003FF66FAFB2
:10172000306A8007F4D4B8F1000F7FF453AFF0694A
:1017300020F08050F0614DE7206AB0F5803F05D180
:101740007168A26821F40031114371607168626AA6
:1017500021F4741110430843706001203866FFF7CC
:1017600013FD0446306880013FF548AFFFF70CFDDC
:10177000001B02284FF00300F4D940E780B500F0C9
:1017800059FB80BDFEE7000081B041F21C00C4F2AD
:101790000200016841F002010160006800F00200EF
:1017A0000090009801B0704781B041F21801C4F276
:1017B00002010A6802430A60096808400090009824
:1017C00001B0704781B041F21800C4F20200016814
:1017D00041F004010160006800F0040000900098EE
:1017E00001B070472DE9F047B1F801700C4697FA47
:1017F000A7F1B1FA81F537FA05F133D0804640F20E
:1018000001194FF0011A03E0013537FA05F029D02C
:1018100027FA05F0C007F7D0B5F108000AFA00F082
:1018200040F08066606838BF09FA05F6082804D1E0
:1018300022694046314600F069F862684046314608
:1018400000F03CF8606840F008000928DCD1A2688C
:101850004046314600F068F8E2684046314600F004
:1018600041F8D1E70020BDE8F08700008068C1F3AF
:101870000F210840401AB0FA80F04009704700007C
:1018800040F60C41C4F201010968C0F30F20014089
:10189000081AB0FA80F0400970470000C1F30F2128
:1018A00041617047C1F30F214161704740F610411B
:1018B000C0F30F20C4F201010860704780B54FEA01
:1018C000116E91FAA1F1B1FA81F15EF800C08900C0
:1018D0000F238B402CEA030302FA01F119434EF85F
:1018E000001080BD80B54FEA116E91FAA1F1B1FAF6
:1018F00081F15EF800C0890004238B402CEA0303C9
:1019000002FA01F119434EF8001080BDC3684FEA96
:10191000112C23EA11219CFAACF3B3FA83F39A4019
:101920001143C1607047000080B54FEA116E91FA13
:10193000A1F1B1FA81F15EF800C0890003238B4068
:101940002CEA030302FA01F119434EF8001080BD9E
:1019500040F20040C4F20000016821F08001016003
:101960007047000040F20840C4F20000016821F016
:101970008001016070470000416941F0010141614F
:1019800070470000012806D0042806D010280CBF9C
:101990000220062002E0002000E0012042F2AC011B
:1019A000C0F6000142F2B302095C40F2184CC0F6E6
:1019B0000002C4F2000C105C51F80C30032282408B
:1019C00023EA0202012303FA00F0104341F80C005D
:1019D00070470000012806D0042806D010280CBF4C
:1019E0000220062002E0002000E0012042F2AC01CB
:1019F000C0F6000142F2B302095C40F2184CC0F696
:101A00000002C4F2000C105C51F80C30F02202FA13
:101A100000F023EA000041F80C007047012806D0CE
:101A2000042806D010280CBF0220062002E0002067
:101A300000E0012040F2204105A3C4F20001185C3F
:101A40000A680A2303FA00F022EA000008607047DF
:101A500000020406080A0C00012806D0042806D05B
:101A600010280CBF0220062002E0002000E0012028
:101A700042F2AC01C0F6000142F2B302095C40F24E
:101A8000184CC0F60002C4F2000C105C51F80C3087
:101A90000C2202FA00F023EA000041F80C00704723
:101AA00070B50D4640F2FF7104460068C4F20001B3
:101AB00042F600468C42C4F2010605DCB4F1804FC8
:101AC0000AD040F2004203E0B44205D040F60002E2
:101AD000C4F20002944203D16A6820F070001043FF
:101AE0008C4205DCB4F1804F0AD040F2004103E0A3
:101AF000B44205D040F60001C4F200018C4203D18B
:101B0000E96820F4407008432060A968204600F08E
:101B10000FF82988204600F00DF8B44202D1286958
:101B200000F00AF82046FFF727FF002070BD0000F4
:101B3000C16270478162704742F63041C4F20101D0
:101B40000860704740F20440C4F20000016821F0D0
:101B50007001016070470000B0B58AB040F2141007
:101B600046F20041C2F20000C4F2000140F2001C43
:101B7000122200254FF440234FF48014C0F2010CD0
:101B800080E826004FF48071C0E90353C0E9054C9A
:101B90008183FFF71BF8002818BFFEF719FD40F2FC
:101BA000B000C2F20000012404701FA040F2032123
:101BB000FEF714FB0F20099040F21410C2F200004F
:101BC0006946CDE90055CDE90255CDE90455CDE989
:101BD00006540894FEF798FD002818BFFEF7F8FC9D
:101BE000102005900020CDE90000CDE90200CDE9EC
:101BF000060440F21410C2F20000694604940894EE
:101C0000FEF782FD002818BFFEF7E2FC40F2141434
:101C1000C2F200042046FFF769F9204648F6126137
:101C2000FEF70CFD0AB0B0BD4652414D455F494438
:101C30003D25780D0A0000002DE9F04F85B0002603
:101C400020200496CDE90266CDE90066FFF7ACFDE1
:101C500004204FF0040AFFF7A7FD08200827FFF72C
:101C6000A3FD40F6000BC4F2010B4EF2ED180BF58C
:101C70008065C0F20C4828464146FFF713FE40F24B
:101C80000F09C0F20F4958464946FFF70BFE41F6CF
:101C90001F70CDE900076F46012458463946049469
:101CA000FFF7A0FDCDE900844FF002082846394631
:101CB000CDE90286FFF796FD09F1E110CDE9000AB2
:101CC00028463946FFF78EFD58463946CDE900943F
:101CD000CDE90286FFF786FD05B0BDE8F08F000074
:101CE000B0B58AB00025CDE90855CDE90655CDE956
:101CF0000455CDE90255CDE90055FFF745FDFFF745
:101D000061FD4CF2C00040F2004400900420C4F297
:101D10000004019004F582306946FFF763FD4FF639
:101D2000FF70CDE9070505A92046ADF814500695CA
:101D3000FFF7B6FEFFF70CFEFFF704FFFFF712FEFA
:101D40000120FFF71FFE0120FFF786FE0120FFF7AD
:101D500041FE0120FFF762FE1020FFF713FE102066
:101D6000FFF77AFE1020FFF735FE1020FFF756FE32
:101D70000AB0B0BDFEE70000FEE7000000F007007B
:101D800080F00703042B28BF04234FF0FF3C0338E7
:101D90000CFA03F338BF0020994381400CFA00F09D
:101DA00022EA0000084370477047000081B040F20B
:101DB0000000C2F20000006844F6D351C1F2620193
:101DC000A0FB0101480A009000BF0098411E0028B6
:101DD0000091F9D101B070477047000080B540F222
:101DE0000810C2F20000A821017040F21011C2F2E6
:101DF00000010978427801F01E0102F00F0242EA68
:101E0000C10140F2B002C2F200021278417040F209
:101E10009800C2F2000000210823002A18BF40F2F7
:101E20000322C0E90021C0E9021103610175FEF738
:101E300091FB80BDB0B501380024B4EB106F1CBF1E
:101E40000120B0BD4EF21005CEF2000568604FF0E3
:101E5000FF300F2100F05AF80720AC6028602046C0
:101E6000B0BD000080B5FFF795F980BD70B590B0AA
:101E700006AC20462821FEF76FFA01200A901020B8
:101E80000B904FF4E010002502260F902046059598
:101E9000CDE90355CDE901550696CDE90D65FFF76E
:101EA000E7FA68B90F20CDE9010601A80121CDE9C3
:101EB00003550595FFF7F2F9002804BF10B070BD77
:101EC000FEF786FB7047000080B540F21410C2F2A6
:101ED0000000FEF75DFD80BDFEE70000002848BF62
:101EE000704700F01F01012202FA01F14EF20012C8
:101EF0004009CEF2000242F8201070474EF60C5016
:101F0000CEF200000068C0F3022070474EF6145372
:101F100000F00F02CEF2000309011A4400F1604301
:101F2000B0F1FF3FC8BF03F5644211707047000075
:101F30004EF60C51CEF200010A684FF6FF031A402C
:101F400060F30A2242F0806040F0FD700860704744
:101F50004EF6FC51CEF200010968C90158BF704726
:101F60004FF060410A68002AFCD04FF060410870D1
:101F70007047000040F600440425C4F20104C0F29A
:101F80000445FFF715F9FFF771FFFFF755FEFFF75F
:101F9000E3FDFFF7A5FE30A0FEF7C8F9A4F58067C2
:101FA000A5F103113846FFF779FCA5F10211384677
:101FB000FFF774FC38462946FFF770FC05F104165C
:101FC00038463146FFF76AFC204640F20111FFF720
:101FD00065FC204642F22001FFF760FC204644F2F7
:101FE0004001FFF75BFC204648F28001FFF756FCFA
:101FF00020463146FFF752FC2846FFF757FC4FF4C6
:102000007A70FEF7AFFFFEF7E9FA15A70EE000BF02
:1020100020462946FFF742FCFFF7E0FE014638461E
:10202000FEF7DCF84FF4FA70FEF79CFF3046FFF73E
:1020300027FC28B120463146FFF730FC03E000BF03
:102040003046FFF733FC2846FFF71AFC0028DFD1A3
:102050002846FFF72BFCDFE773746172740D0000F4
:102060007374617475735F43414E5F54583D2575B9
:102070000D0A0000303132333435363738394142B9
:1020800043444546403058003031323334353637DA
:102090003839616263646566403078000000000092
:1020A0000000000001020304060708090000000008
:1020B00004040400000800000008000000080140BB
:1020C0000101000000080140020200000008014078
:1020D0000404000000080140080800000008014056
:1020E000101000000821000800000020100000006F
:1020F0002801000818210008100000203007000007
:1021000044010008000000000024F4000501000064
:082110001000000000000000B7
:04000005080000ED02
:00000001FF
